:020000040800F2
:1000000000A00020B9020008BF020008C3020008D7
:1000100035030008390300088103000800000000D0
:10002000000000000000000000000000C9030008FC
:10003000CD03000800000000D10300082D180008BF
:10004000E5030008E5030008E5030008E5030008F0
:10005000E5030008E5030008E5030008E5030008E0
:10006000E5030008E5030008E5030008E5030008D0
:10007000E5030008E5030008E5030008E5030008C0
:10008000E5030008E5030008E5030008E5030008B0
:10009000E5030008E5030008E5030008E5030008A0
:1000A000E5030008E5030008E5030008E503000890
:1000B000E5030008E5030008E5030008E503000880
:1000C000E5030008E5030008E5030008E503000870
:1000D000E5030008A5190008E5030008E50300088A
:1000E000E5030008E5030008E5030008E503000850
:1000F000E5030008E5030008E5030008E503000840
:10010000000000000000000000000000E5030008FF
:10011000E5030008E5030008E5030008E50300081F
:10012000E5030008E5030008E5030008E50300080F
:10013000E5030008E50300080000000000000000DF
:10014000E5030008E5030008E503000800000000DF
:10015000000000000000000000000000000000009F
:100160000000000000000000E5030008E5030008AF
:10017000E50300080000000000000000000000008F
:1001800000000000E503000800B583B001F0DAF9D3
:10019000384B394A1360394A1360394900E0214627
:1001A000384B99420BD20A684B6801F10C048868FD
:1001B0009842F4D91168196004330432F8E72E4BE1
:1001C0001A68314B9A4200D0FEE72C4B1A682F4B2D
:1001D0009A42F9D1274B2E4A13602E4A13602E4BB8
:1001E00005E00020106004329342FAD80B462B4AF7
:1001F000934204D2194651F8082B5B68F4E7244B6C
:100200001B6813B9234B1B6803B1FEE701F0A6F985
:10021000694601A801F028F9214C224BE41AA410E8
:100220000025AC4214DC204C204BE41AA41000251D
:10023000AC4213DC0099019801F0B8FC05461C4C57
:100240001C4BE41AA410002C0EDC284601F0DEF84A
:10025000144B53F8253098470135E2E7134B53F818
:10026000253098470135E3E7013C124B53F8243021
:100270009847E8E7BABADECA00000020B0000020C4
:10028000E8030008000400087856341232547698C7
:10029000B4000020780200200004000810040008C8
:1002A00010040008100400081004000810040008DE
:1002B000100400081004000808B5FFF765FF00BE31
:1002C000FEE71EF0040F0CBFEFF30880EFF3098088
:1002D0007146414A10472DE9F04182B004468846F4
:1002E000124B5E6B9F6B9D6A1B6B13F0020F03D06A
:1002F0000E4BDB6A002B0CDB0D4801F0C7F8CDF884
:1003000000803B4632462946204601F02BF900BECC
:10031000FEE74BF6AB6101F09FF90028ECD0034BF0
:100320004FF00042DA6202B0BDE8F08100ED00E07B
:100330007429000800BEFEE71EF0040F0CBFEFF3A7
:100340000880EFF309807146244A10472DE9F041F7
:1003500082B004468846084B5E6B9F6B9D6A0748D7
:1003600001F094F8CDF800803B46324629462046FD
:1003700001F0F8F800BEFEE700ED00E08429000877
:100380001EF0040F0CBFEFF30880EFF309807146F5
:10039000134A10472DE9F04182B004468846084BC5
:1003A0005E6B9F6B9D6A074801F070F8CDF8008086
:1003B0003B4632462946204601F0D4F800BEFEE70F
:1003C00000ED00E09029000800BEFEE700BEFEE759
:1003D00000BEFEE770470000D70200084D0300088A
:0803E0009503000800BEFEE7D2
:1003E8008C2A000800000020B40000208C2A000895
:1003F8000000001000000010B40000207C02002063
:080408000000001000000010CC
:10041000F8B505460E46B0F1904F16D0404B9842C5
:1004200013D003F5806398420FD003F580639842A0
:100430000BD003F58063984207D003F580639842A0
:1004400003D0B921374801F017F833683BB133794D
:10045000032B09D8F379022B0BD800243AE0BA21F8
:10046000304801F009F8F2E7BB212E4801F004F80A
:10047000F0E7BC212B4800F0FFFFEEE7CC21294834
:1004800000F0FAFF37E0AA88A0B20121814022EAF9
:100490000102AA80AA88B37983409BB21343AB8040
:1004A0002A686100032303FA01F022EA00022A60AD
:1004B0002A683079884002432A60EA68A0B2400086
:1004C000834022EA0303EB60EB68F2798A4013432E
:1004D000EB6001340F2C22D80123A34032689343F0
:1004E000F7D13379013BDBB2012BD9D87379013BCA
:1004F000DBB2022BC2D8A96867000320B84021EA0A
:100500000001A960AB687279BA401343AB60B3795C
:10051000012BB8D9D321034800F0AEFFB3E7F8BDF3
:10052000000400481C2700084FF6FF7303600023F7
:100530000371022242718371C371704738B504465A
:100540000D46B0F1904F17D0104B984214D003F5E0
:100550008063984210D003F5806398420CD003F575
:100560008063984208D003F58063984204D04FF42A
:10057000C471074800F080FF0DB1A56138BD40F29D
:100580008911034800F078FFF7E700BF0004004836
:100590001C27000838B504460D46B0F1904F17D01F
:1005A000104B984214D003F58063984210D003F5A5
:1005B000806398420CD003F58063984208D003F51D
:1005C0008063984204D04FF4CD71074800F054FF87
:1005D0000DB1258538BD40F29B11034800F04CFF5A
:1005E000F7E700BF000400481C27000870B5054667
:1005F0000C461646B0F1904F17D0204B984214D0BD
:1006000003F58063984210D003F5806398420CD0C4
:1006100003F58063984208D003F58063984204D0C4
:1006200040F20321164800F027FF0F2C1FD80B2E95
:1006300008D90E2E06D00F2E04D040F20521104806
:1006400000F01AFF04F007039B009E40E108083108
:1006500055F821200F2000FA03F322EA030345F89E
:10066000213055F821301E4345F8216070BD4FF40C
:100670000171034800F000FFD9E700BF0004004803
:100680001C27000810B50446B0F5E06F0FD0B0F598
:10069000C06F0CD0B0F5A06F09D0B0F5806F06D058
:1006A000B0F5407F03D06721044800F0E5FE44F038
:1006B000BF6444F40034024BDC6010BD50270008D6
:1006C00000ED00E010B50446C378012B12D8637822
:1006D0000F2B14D8A3780F2B16D8E378CBB9237837
:1006E00003F01F015B0901228A402033184941F8B9
:1006F000232010BD8121174800F0BEFEE7E78221CC
:10070000144800F0B9FEE5E78321124800F0B4FE7A
:10071000E3E7114BDA68D243C2F30222C2F10400CC
:100720000F2323FA02F261788140A37813400B4330
:100730001B012278DBB206490A4482F80033237891
:1007400003F01F005B090122824041F82320D0E71B
:1007500000E100E05027000800ED00E0F0B4A94BF4
:100760005B6803F00C03042B00F09F80082B00F063
:10077000A0801BB1A44B0360002301E0A24A0260E9
:10078000A04D6A68C2F30312DFF884C21CF802703D
:10079000FFB2046824FA07F242606968C1F30221DB
:1007A0001CF80110C9B222FA01F181606E68C6F32B
:1007B000C2261CF80660F6B2F240C260ED6AC5F3CC
:1007C0000415DFF850C23CF81550ADB215F0100F0B
:1007D00000F08880B3FBF5F505618A4DED6AC5F33D
:1007E0004425DFF830C23CF81550ADB215F0100FBB
:1007F0007AD0B3FBF5F54561824D2D6B15F0100FE6
:1008000074D1814D85617F4D2D6B15F0200F6FD117
:100810007D4DC5617B4D2D6B15F4807F01D09C42D1
:1008200068D00262774D2D6B15F4007F01D09C4299
:1008300065D04262734B1B6B13F0030F64D182626D
:10084000704B1B6B13F4403F79D1C1626D4B1B6B36
:1008500013F4402F40F0928001636A4B1B6B13F43A
:10086000401F40F0AA804163664B1B6B13F4400F9E
:1008700000F0C280634B1B6B03F44003B3F5800FA1
:1008800000F0BD805F4B1B6B03F44003B3F5000F1A
:1008900000F0C2805B4B1B6B03F44003B3F5400FC9
:1008A00040F0AB80584B8363A7E0574B03600023B5
:1008B00066E7544A53685268C3F38343023312F421
:1008C000803F04D1514A02FB03F3036058E74D4ACD
:1008D000D26A02F00F0201324B49B1FBF2F203FB84
:1008E00002F3F2E7046178E7446185E784618AE70F
:1008F000C4618FE7B74294D15D00056292E7B742C9
:1009000097D15B00436295E73E4B1B6B03F00303FB
:10091000012B0ED03B4B1B6B03F00303022B0AD0C1
:10092000384B1B6B03F00303032B89D1364B8362D7
:1009300086E7846284E74FF40043836280E7314BAB
:100940001B6B03F44033B3F5803F11D02D4B1B6B71
:1009500003F44033B3F5003F0CD02A4B1B6B03F478
:100960004033B3F5403F7FF471AF274BC3626DE76F
:10097000C4626BE74FF40043C36267E7214B1B6B14
:1009800003F44023B3F5802F11D01E4B1B6B03F4EF
:100990004023B3F5002F0CD01A4B1B6B03F44023FC
:1009A000B3F5402F7FF459AF174B036355E704634A
:1009B00053E74FF4004303634FE7124B1B6B03F401
:1009C0004013B3F5801F11D00E4B1B6B03F4401383
:1009D000B3F5001F0CD00B4B1B6B03F44013B3F5A6
:1009E000401F7FF441AF084B43633DE744633BE75F
:1009F0004FF40043436337E78163F0BC704784637F
:100A0000FBE700BF0010024000127A0000093D0021
:100A100020000020040000204FF400438363ECE733
:100A200038B504460D460E4B034003B920B940F2D9
:100A30005C510C4800F020FD012D06D85DB90A4A32
:100A4000536923EA0404546138BD40F25D510548FE
:100A500000F012FDF2E7044A53691C435461F3E7C6
:100A6000A8FF81CE842700080010024038B5044654
:100A70000D4620F4EF2323F0010303B920B940F21F
:100A80007F510B4800F0F8FC012D06D85DB9094AEA
:100A9000936923EA0404946138BD4FF4B0610448BB
:100AA00000F0EAFCF2E7034A93691C439461F3E720
:100AB000842700080010024038B504460D4620F493
:100AC000EF2323F0010303B920B940F2ED510B48A5
:100AD00000F0D2FC012D06D85DB9094AD36823EA9B
:100AE0000404D46038BD40F2EE51044800F0C4FC68
:100AF000F2E7034AD3681C43D460F3E78427000875
:100B00000010024038B504460D460E4B034003B9B1
:100B100020B940F217610C4800F0AEFC012D06D858
:100B20005DB90A4A136923EA0404146138BD4FF41D
:100B3000C361054800F0A0FCF2E7044A13691C43B6
:100B40001461F3E7C83701CD842700080010024084
:100B500010B504461C4B98420BD0A3F5784398423D
:100B600007D003F58063984203D0C121174800F0F5
:100B700083FC154B9C4206D0154B9C420ED0154B66
:100B80009C4216D010BD01214FF48050FFF794FF16
:100B900000214FF48050FFF78FFFF3E701214FF45E
:100BA0008040FFF7AFFF00214FF48040FFF7AAFF1E
:100BB000E8E701214FF40040FFF7A4FF00214FF4C4
:100BC0000040FFF79FFFDDE700300140B427000839
:100BD00000380040003C00400023038043804FF475
:100BE000E0628280C380038143818381C3810723C4
:100BF0000382704770B505460C46714B98420CD085
:100C0000A3F57843984208D003F58063984204D056
:100C10004FF483716B4800F02FFC238843B1B3F588
:100C2000806F05D0B3F5004F02D0B3F5404F77D1B8
:100C30006388B3F5827F01D0002B77D1A388B3F509
:100C4000407F23D0B3F5806F20D0B3F5A06F1DD0C7
:100C5000B3F5C06F1AD0B3F5E06F17D0B3F5006FDE
:100C600014D0B3F5106F11D0B3F5206F0ED0B3F5DB
:100C7000306F0BD0B3F5406F08D0B3F5506F05D08F
:100C8000B3F5606F02D0B3F5706F55D1E3880BB147
:100C9000022B57D12389012B5AD86389B3F5007FE2
:100CA00001D0002B5AD1A3896BB1082B0BD0102B8C
:100CB00009D0182B07D0202B05D0282B03D0302BA0
:100CC00001D0382B50D1E3890BB1802B52D1238A2C
:100CD000002B55D06388B3F5827F57D0AB889BB289
:100CE00023F47063A2881343AB802B8803F4415034
:100CF000238862881343E28821890A436189A6898F
:100D00003143E68931430A43134303432B80AB8BC2
:100D10009BB223F400639BB2AB83238A2B8270BD0A
:100D200040F20911274800F0A7FB81E74FF48571D5
:100D3000244800F0A1FB81E740F20B11214800F0AC
:100D40009BFBA3E74FF486711E4800F095FBA1E7DB
:100D500040F20D111B4800F08FFB9EE74FF48771A6
:100D6000184800F089FB9EE740F20F11154800F08B
:100D700083FBA8E74FF48871124800F07DFBA6E7DB
:100D800040F211110F4800F077FBA3E7288800F428
:100D9000415022881343E28821890A436189A68948
:100DA0003143E68931430A43134303432B80AB8825
:100DB0009BB223F47063A2881343AB80A7E700BF04
:100DC00000300140B427000838B504460D46124BE8
:100DD00098420CD0A3F57843984208D003F580637D
:100DE000984204D04FF4FE710C4800F045FB012DF1
:100DF00007D865B923889BB223F040039BB22380B8
:100E000038BD40F2FD11054800F036FBF1E72388BC
:100E100043F040032380F3E700300140B42700088B
:100E200038B504460D46094B98420CD0A3F57843DB
:100E3000984208D003F58063984204D040F24E31C6
:100E4000034800F019FB257338BD00BF0030014096
:100E5000B427000810B504460C4B984213D0A3F5F4
:100E6000784398420FD003F5806398420BD0A3F5E6
:100E70000063984207D0B0F1402F04D040F26F31A8
:100E8000034800F0F9FA207B10BD00BF003001409C
:100E9000B427000810B504462E4B984213D0A3F592
:100EA000744398420FD003F5806398420BD003F54A
:100EB0008063984207D003F58063984203D0B02145
:100EC000254800F0D9FA234B9C420CD0234B9C427E
:100ED00014D0234B9C421CD0224B9C4224D0224B4A
:100EE0009C422CD010BD01214FF48040FFF7E4FD5F
:100EF00000214FF48040FFF7DFFDF3E701214FF4BD
:100F00000030FFF7FFFD00214FF40030FFF7FAFD3E
:100F1000E8E701214FF48020FFF7F4FD00214FF4B2
:100F20008020FFF7EFFDDDE701214FF40020FFF700
:100F3000E9FD00214FF40020FFF7E4FDD2E7012195
:100F40004FF48010FFF7DEFD00214FF48010FFF713
:100F5000D9FDC7E700380140E427000800440040FD
:100F600000480040004C00400050004030B591B0B7
:100F700004460D465A4B984213D0A3F57443984249
:100F80000FD003F5806398420BD003F5806398423D
:100F900007D003F58063984203D0DF21514800F069
:100FA0006BFA2B68013B504A934255D86B6813B1DA
:100FB000B3F5805F55D1AB682BB1B3F5005F02D0BC
:100FC000B3F5405F52D1EB682BB1B3F5806F02D01F
:100FD000B3F5C06F4FD12B6933F00C0200D11BB9B0
:100FE000E421404800F048FA6B6943B1B3F5807FD3
:100FF00005D0B3F5007F02D0B3F5407F40D1236820
:1010000023F001032360626822F44052AB6813436B
:101010006360226822F4B05222F00C026B68E96827
:101020000B4329690B4313432360A26822F44072E7
:101030006B691343A36001A8FFF790FB284B9C4208
:1010400023D02A4B9C423FD0294B9C423ED0294B77
:101050009C423DD00F9919E0E021224800F00CFAA3
:10106000A4E7E1211F4800F007FAA4E7E2211D48A8
:1010700000F002FAA7E7E3211A4800F0FDF9AAE719
:10108000E521184800F0F8F9B9E70B99236813F443
:10109000004F1FD049002A68B1FBF2F302FB131284
:1010A0002968B2EB510F00D30133226812F4004FCC
:1010B00006D0C3F3420223F00F031B041B0C13439F
:1010C0009BB2A38111B030BD0C99DFE70D99DDE72C
:1010D0000E99DBE72A68B1FBF2F302FB1312DFE79C
:1010E00000380140E42700087F8D5B000044004089
:1010F00000480040004C00404FF4165303600023AA
:1011000043608360C3600C2202614361704700004A
:1011100038B504460D46154B984214D0A3F57443D8
:10112000984210D003F5806398420CD003F5806399
:10113000984208D003F58063984204D040F2991198
:101140000B4800F099F9012D05D855B9236823F013
:101150000103236038BD4FF4CD71054800F08CF9D0
:10116000F3E7236843F001032360F3E7003801400D
:10117000E427000838B505460C46124B984214D0B7
:10118000A3F57443984210D003F5806398420CD0C5
:1011900003F58063984208D003F58063984204D039
:1011A00040F2A131084800F067F9B4F5007F03D29E
:1011B000C4F308042C8538BD40F2A231024800F087
:1011C0005BF9F5E700380140E427000810B5044654
:1011D0000D4B984214D0A3F57443984210D003F5F8
:1011E000806398420CD003F58063984208D003F5E1
:1011F0008063984204D040F2B131044800F03CF9D9
:10120000A08CC0F3080010BD00380140E42700089E
:1012100070B505460C461646334B984214D0A3F5DC
:101220007443984210D003F5806398420CD003F5C4
:101230008063984208D003F58063984204D040F25E
:10124000FD612A4800F018F9B4F5847F24D0284BBA
:101250009C4221D0A3F101139C421DD0A3F10113A4
:101260009C4219D0A3F101139C4215D0214B9C4202
:1012700012D0214B9C420FD0B4F5407F0CD01F4BB5
:101280009C4209D003F101139C4205D01C4B9C42A7
:1012900002D01C4B9C4212D1012E16D82A46C4F310
:1012A0000721E4B2012303FA04F4022913D003292D
:1012B00013D0AEB9136823EA0404146070BD40F281
:1012C000FE610A4800F0D8F8E6E740F2FF610748FF
:1012D00000F0D2F8E2E72A1DEBE705F10802E8E7A3
:1012E00013681C431460E9E700380140E427000854
:1012F00007010700060208000A0309001A010B0093
:101300000E0111001603140038B505460C46364B85
:10131000984214D0A3F57443984210D003F580632B
:1013200098420CD003F58063984208D003F580639F
:10133000984204D040F2DB712C4800F09DF8B4F5DF
:10134000847F2CD02A4B9C4229D0A3F101139C42CC
:1013500025D0A3F101139C4221D0A3F101139C429B
:101360001DD0244B9C421AD0234B9C4217D0234BB8
:101370009C4214D0A3F580339C4210D0A3F5803357
:101380009C420CD01E4B9C4209D003F101139C429D
:1013900005D01C4B9C4202D01B4B9C4214D1C4F381
:1013A0000722E1B201238B40012A13D0022A14D074
:1013B000AA681340240C012202FA04F4EA691440DA
:1013C00073B17CB900200CE040F2DC71074800F0FA
:1013D00053F8E4E72A681340ECE76A681340E9E74A
:1013E000002038BD0120FCE700380140E427000858
:1013F00007010700060208000A03090000030300B2
:101400001A010B000E01110016031400FEE7000084
:1014100008B5034800F052F80120FFF7F7FF00BFBE
:101420001828000808B503460C4A12685AB10B4A3E
:101430001068033323F003030344094A934206D898
:10144000064A136008BD054A06491160EFE700F03F
:101450006BFC0C2303604FF0FF30F3E7B800002073
:10146000009C00207C02002001230360014B0B60E4
:10147000704700BF3000002008B50A460146024808
:1014800000F004F8FFF7C4FF2C2800080FB400B5E3
:1014900083B004AB53F8042B01938021064800F07D
:1014A000DBFC002803DD0146034800F047F803B0E9
:1014B0005DF804EB04B07047C000002010B504468E
:1014C00000F042FC0146204600F038F801210248B5
:1014D00000F034F810BD00BFF02800082DE9F043FB
:1014E00085B004460F4643560BB10E461EE0042558
:1014F00028462146ABBE0446384605B0BDE8F08319
:1015000014F9011B04AA1A4402F8101C0133AB425F
:10151000F6D304AA1344002203F8102C4FF0040859
:10152000E94640464946ABBE8046761B002EE3D0D6
:101530003546102E28BF10250023E8E708B5FFF731
:10154000CDFF08BD08B500F0EFF8024A024B9A60E3
:1015500008BD00BF0000000800ED00E008B500F085
:1015600015F908BDF8B504460D4617461E4627482E
:10157000FFF78CFF21682648FFF788FF6168254840
:10158000FFF784FFA1682448FFF780FFE168234844
:10159000FFF77CFF21692248FFF778FF6169214846
:1015A000FFF774FFA1692048FFF770FFE1691F484A
:1015B000FFF76CFF1E48FFF769FF29461D48FFF73C
:1015C00065FF1D4CE16A1D48FFF760FF216B1C4859
:1015D000FFF75CFFE16B1B48FFF758FF15F0800F2A
:1015E0000AD115F4004F0CD11748FFF74FFF0699A9
:1015F0001648FFF74BFFF8BD39461548FFF746FF81
:10160000EFE731461348FFF741FFEDE758280008A0
:10161000682800087828000888280008982800080A
:10162000A8280008B8280008C8280008D8280008FA
:10163000E8280008F428000800ED00E0042900086C
:101640001429000824290008542900085C290008EE
:10165000342900084429000883691A888A4201D085
:10166000002070470268033A012A03D802338361DD
:10167000012070470020704782B00023019300933F
:10168000274A136843F480331360254B1B6803F427
:1016900000330093019B01330193009B1BB9019B15
:1016A000B3F5A06FF1D11E4B1B6813F4003F06D0B9
:1016B00001230093009B012B04D002B0704700234C
:1016C0000093F7E7174B12221A60A3F580535A686C
:1016D0005A605A685A605A6842F480625A605A687E
:1016E00022F47C125A605A6842F4E8125A601A686E
:1016F00042F080721A600A4B1B6813F0007FFAD028
:10170000074B5A6822F003025A605A6842F00202FC
:101710005A60034B5B6803F00C03082BF9D1CCE74C
:10172000001002400020024008B5144B1A6842F035
:1017300001021A605968124A0A405A601A6822F077
:10174000847222F480321A601A6822F480221A60AD
:101750005A6822F4FE025A60DA6A22F00F02DA6254
:10176000196B084A0A401A6300229A60FFF784FF47
:10177000054B4FF000629A6008BD00BF00100240A8
:101780000CC07FF8CCFC00FF00ED00E01D4B5B6857
:1017900003F00C03042B15D0082B17D01BB11A4BE8
:1017A0001A4A1A6002E0184B184A1A60154B5B6817
:1017B000C3F30313164AD35CDAB213490B68D34060
:1017C0000B607047104B114A1A60EFE70D4A5368DF
:1017D0005268C3F38343023312F4803F05D10D4AAC
:1017E00002FB03F3084A1360E0E7064AD26A02F0FC
:1017F0000F0201320549B1FBF2F203FB02F3024A88
:101800001360D3E7001002404800002000127A0065
:101810003800002000093D00034B1B681BB1024A41
:101820001368013B136070475001002008B5FFF7B3
:10183000F3FF08BD10B504460549064800F032FA2A
:101840001CB12146034800F02DFA002010BD00BF56
:10185000042A00080038014010B50446054906482E
:1018600000F020FA1CB12146034800F01BFA0020CA
:1018700010BD00BFF42900080038014038B50C49FC
:101880000C4800F00FFA00240DE004EB4402930032
:10189000084D094AD158284600F004FA074928465D
:1018A00000F000FA0134022CEFDD002038BD00BF4B
:1018B000D82900080038014054010020F029000810
:1018C00030B484B0104B0193002302930F4B039369
:1018D0000F4B01AC94E8070083E807000D4A019222
:1018E0000D4A039203F10C0594E8070085E8070010
:1018F0000A4A01920A4A0392183394E8070083E8DF
:10190000070004B030BC7047C4290008351800082F
:1019100054010020CC29000859180008D0290008DB
:101920007D18000838B51849184800F015FA20B39A
:101930000546174C1749204600F0B4F929462046C1
:1019400000F0B0F91449204600F0ACF90024022C54
:1019500017DC04EB440293002946104AD05800F0EB
:10196000E9F908B10134F2E704EB4404A2000B4B9F
:1019700013449B680548984703E00949044800F070
:1019800091F9002038BD00BFAC2900087801002083
:1019900000380140282A0008542A00085401002079
:1019A000342A0008F8B5294B1B786BB1274B00226D
:1019B0001A704FF480712648FEF7C0FD254926486D
:1019C000FFF7A2FC48B9F8BD204B01221A704FF472
:1019D00080711F48FEF7DEFDF0E71F48FFF7F6FBBA
:1019E00044B20D2C0DD021461B4800F04FF91B4B83
:1019F0001B78FF2B21D01A4AD4540133174A137095
:101A0000E1E7164E3378164F0024FC54204600F0D0
:101A100057F9FFF787FF104D1249284600F042F9A9
:101A20003946284600F03EF90F49284600F03AF9B9
:101A30003470012000F044F9C5E7084B00221A7009
:101A40000A49054800F02EF9BDE700BF400100201B
:101A50000010004805010500003801404101002048
:101A600078010020A0290008F0290008B02900080A
:101A70002DE9F04182B06846FEF756FD01214FF492
:101A80000010FEF7CDFF4FF47F43009303268DF83F
:101A9000056001258DF8045000248DF806408DF86E
:101AA0000750DFF8D48069464046FEF7B1FC29466E
:101AB0004FF40030FEF7B4FF6846FEF735FD4FF4F3
:101AC000C063009302278DF805708DF804708DF8BF
:101AD000064069464FF09040FEF79AFC0722092124
:101AE0004FF09040FEF782FD07220A214FF0904010
:101AF000FEF77CFD29464FF40030FEF791FF0522EA
:101B000011464FF09040FEF771FD052206214FF07F
:101B10009040FEF76BFD052207214FF09040FEF745
:101B200065FD6846FEF700FDE02300938DF8064052
:101B30008DF804708DF805608DF8074069464FF008
:101B40009040FEF765FC29464FF40010FEF768FF51
:101B50006846FEF7E9FC082300938DF806408DF8EF
:101B600004508DF805608DF8074069464046FEF741
:101B70004FFC02B0BDE8F0810010004800B583B012
:101B80004FF4E060FEF77EFD25238DF8043000233E
:101B90008DF805308DF8063001238DF8073001A847
:101BA000FEF790FD03B05DF804FB000010B5FFF7F1
:101BB000BBFDFFF7E3FFFFF75BFF00F08DF800F0E0
:101BC0002FF8FFF77DFE1249124800F06BF80DE088
:101BD0000133B3F57A7FFBDB08210F48FEF7AEFC3B
:101BE000002300E00133B3F57A7FFBDB08210A48CC
:101BF000FEF7D0FC094C8F212046FFF711F9FF2199
:101C00002046FFF70DF92046FFF724F90023E0E70F
:101C1000482A000800380140001000480030014008
:101C200010B586B001214FF48050FEF71FFF01A8C8
:101C3000FEF7D2FF2823ADF810300023ADF80C30AA
:101C4000ADF80A300722ADF814204FF4E062ADF889
:101C50000820ADF80430ADF812304FF48273ADF8BF
:101C600006304FF40073ADF80E30074C2046FEF7F7
:101C70006FFF01A92046FEF7BDFF01212046FFF7B7
:101C8000A3F806B010BD00BF0030014008B5044BFA
:101C9000DB6913F0800FFAD089B2FFF76BFA08BD49
:101CA0000038014038B505460C4621B907E0284602
:101CB000FFF7ECFF013494F900100029F7D138BD8B
:101CC00008B5024602490348FFF7A2FA08BD00BF63
:101CD000050105000038014010B586B001214FF420
:101CE0008040FEF7C3FE6846FFF706FA4FF416532E
:101CF0000093002305930C22049203930293019313
:101D0000084C2046FFF7C6F869462046FFF72EF933
:101D10000120FFF7D5FF01212046FFF7F9F906B0B2
:101D200010BD00BF00380140014B1868704700BF6C
:101D30004C00002010F8012B11F8013B012A28BFAC
:101D40009A42F7D0D01A7047034613F8012B002AA5
:101D5000FBD1181A01387047134B2DE9F0411D686B
:101D6000AC6D06460F46B4B9502000F083F8A86564
:101D7000046044608460C46004614461846184627E
:101D8000C462046344638463C46304644464846419
:101D9000C46404774462AA6D394630460123BDE825
:101DA000F04100F003B800BF4C000020F0B518B9B6
:101DB000106808B9F0BD204604460F4614F8015BD0
:101DC00017F8016B1EB965B915602846F0BDB5421C
:101DD000F6D1002BEFD114600370F0BD1C460CE06F
:101DE00015B914F8013B0E4616F8015BAB42F7D16A
:101DF000002BF3D0002304F8013C1460F0BD30B593
:101E0000141E05469BB0184605DA8B232B604FF055
:101E1000FF301BB030BD4FF40273ADF80C3014BF6F
:101E200004F1FF332346029305934FF6FF730091AD
:101E30000491ADF80E3002461E9B6946284600F01C
:101E400029F9431CBCBF8B232B60002CE1D0009BE5
:101E500000221A70DDE7000007B5009313460A461A
:101E6000014603480068FFF7CAFF03B05DF804FBB2
:101E70004C000020024B0146186800F051B800BF2A
:101E80004C00002038B50546002945D051F8043CE7
:101E90000C1F002BB8BFE41800F00FFC1F4A13689A
:101EA000104633B9636014602846BDE8384000F03E
:101EB00005BCA3420CD921686218934204BF1A687A
:101EC0005B68636004BF521822600460ECE713464D
:101ED0005A680AB1A242FAD919685818A0420BD11F
:101EE00020680144581882421960DDD11068526898
:101EF0005A6001441960D7E702D90C232B60D3E75D
:101F0000206821188A4204BF11685268626004BFC9
:101F1000091821605C60C7E738BD00BF440100209C
:101F200070B5CD1C25F0030508350C2D38BF0C25E8
:101F3000002D064601DBA94203D90C2333600020A3
:101F400070BD00F0BAFB234A1468214691B9224CB7
:101F500023681BB9304600F027FB20602946304635
:101F600000F022FB431C26D10C233360304600F0E6
:101F7000A5FBE4E70B685B1B1AD40B2B0FD90B6096
:101F8000CD50CC18304600F099FB04F10B00231D16
:101F900020F00700C31A1BD05A42E25070BD8C4299
:101FA0000DBF63684B686360136018BF0C46E9E7B8
:101FB0000C464968CAE7C41C24F00304A04205D0BB
:101FC000211A304600F0F0FA0130CDD02560D9E773
:101FD00070BD00BF44010020480100202DE9F047FA
:101FE0008E689E4282460C469146984635D88A892C
:101FF00012F4906F31D0256809696F1A6569022360
:1020000005EB450595FBF3F508F101033B449D42C3
:1020100038BF1D46530531D52946FFF781FF0646D7
:1020200050B90C23CAF80030A38943F04003A381C0
:102030004FF0FF30BDE8F0873A46216900F018FB09
:10204000A38923F4906343F08003A3812661656133
:102050003E44ED1B2660A5604646464528BF4646E1
:1020600032464946206800F00EFBA3689B1BA36024
:1020700023681E4426600020BDE8F0872A4600F051
:102080001EFB06460028E1D121695046FFF7FAFE03
:10209000C7E700002DE9F04F9DB0804603938B8980
:1020A0001C060D4616460FD50B696BB94021FFF78C
:1020B00037FF2860286128B90C23C8F800304FF09A
:1020C000FF30C5E040236B610023099320238DF886
:1020D000293030238DF82A304FF0010B37463C462B
:1020E00014F8013B002B3CD1B7EB060A0BD053464A
:1020F000324629464046FFF771FF013000F0A380C9
:10210000099B534409933B78002B00F09C800023EB
:102110004FF0FF3204930793059206938DF85330E6
:102120001A9305222178504800F052FA671C049B4C
:10213000D8B9D90644BF20228DF853201A0744BFCE
:102140002B228DF8532022782A2A16D0079A0021B4
:102150000A20274601343B78303B092B51D9C9B1BD
:1021600011E0252BC0D02746B9E73F4A801A0BFA69
:1021700000F0184304903C46D3E7039A111D1268FF
:102180000391002A01DB079204E0524243F002036C
:10219000079204933B782E2B0ED17B782A2B07F1E4
:1021A000010132D1039B1A1D1B680392002BB8BF9B
:1021B0004FF0FF33023705932C4C39780322204629
:1021C00000F006FA38B14023001B03FA00F0049B2C
:1021D000034304930137397825488DF828100622E7
:1021E0007E1C00F0F5F9002835D0224BFBB9039B8B
:1021F000073323F0070308330393099B4B440993E8
:102200006CE700FB02320121A3E700230593184687
:102210000A240F4601313A78303A092A03D9002BB3
:10222000CAD00590C8E704FB00200123F1E703AB07
:1022300000932A46104B04A94046AFF30080B0F14A
:10224000FF3F8146D9D1AB895B063FF538AF09988E
:102250001DB0BDE8F08F03AB00932A46064B04A9DE
:10226000404600F081F8EAE7582A00085E2A000894
:10227000622A000800000000DD1F00082DE9F04779
:1022800091461F468A680B69DDF820809342B8BFEB
:102290001346C9F8003091F8432006460C4612B1A7
:1022A0000133C9F800302368990642BFD9F80030DD
:1022B0000233C9F80030256815F0060507D104F18E
:1022C000190AE368D9F800209B1A9D4229DB94F88B
:1022D00043302268003318BF012392062ED404F144
:1022E000430239463046C047013021D02368E568B3
:1022F000D9F8002003F00603042B08BFAD1AA36829
:1023000022690CBF25EAE57500259342C4BF9B1ADC
:10231000ED184FF000091A344D451BD10020BDE8DF
:10232000F0870123524639463046C047013003D179
:102330004FF0FF30BDE8F0870135C2E7E1185A1CC5
:10234000302081F84300224494F8451082F843106D
:102350000233C4E70123224639463046C0470130E4
:10236000E6D009F10109D7E72DE9F04317460A7EC7
:1023700085B06E2A984606460C460C9B01F1430E2A
:1023800000F0BC801AD8632A2ED00AD8002A00F0A8
:10239000C880582A00F08A8004F1420584F842205F
:1023A0002AE0642A01D0692AF6D121681A6811F05E
:1023B000800F23D0111D1960136827E0732A00F0E5
:1023C000B48008D86F2A2AD0702AE5D10A6842F072
:1023D00020020A6003E0752A21D0782ADCD1782215
:1023E00084F845206E4964E01A6801F14205111D28
:1023F0001960136884F842300123A3E011F0400F04
:1024000002F104011960D7D0B2F90030002B03DAD1
:102410002D225B4284F8432062490A2217E020689B
:10242000196810F0800F03D0081D18600B6806E0D3
:1024300010F0400F01F104001860F7D00B885949E3
:102440006F2A14BF0A220822002084F8430065681E
:10245000A560002DC0F29C80206820F00400206060
:10246000002B3FD1002D40F095807546082A0BD1F6
:102470002368DA0708D5236962689A42DEBF3023F1
:1024800005F8013C05F1FF35AEEB05032361CDF8FE
:1024900000803B4603AA21463046FFF7EFFE01309D
:1024A00055D14FF0FF3005B0BDE8F08381F84520ED
:1024B0003C492268186812F0800F00F104051D6085
:1024C00001D0036802E05506FBD50388D00744BF5E
:1024D00042F0200222601BB9226822F02002226012
:1024E0001022B1E77546B3FBF2F002FB1033CB5C70
:1024F00005F8013D03460028F5D1B7E708681A68DA
:10250000496910F0800F04D0101D1860136819601D
:1025100007E010F0400F02F1040018601368F6D0D5
:102520001980002323617546B1E71A68111D1960EF
:10253000156862680021284600F04AF808B1401B7F
:10254000606063682361002384F843309FE7236958
:102550002A4639463046C0470130A2D023689B073F
:1025600007D5002504F11909E368039A9B1A9D42D7
:1025700005DBE068039B9842B8BF184693E7012348
:102580004A4639463046C04701308AD00135EBE72C
:10259000002BA7D10B7884F8423004F1420565E79F
:1025A0007A2A0008692A000838B5064C0023054637
:1025B00008462360FEF736FF431C02D1236803B1AF
:1025C0002B6038BD4C01002000000000000000001E
:1025D00001F0FF01102A2BDB10F0070F08D010F8D4
:1025E000013B013A8B422DD010F0070F42B3F6D1D8
:1025F000F0B441EA012141EA014122F007047FF0F1
:1026000000070023F0E80256083C85EA010586EA47
:10261000010685FA47F5A3FA87F586FA47F6A5FA83
:1026200087F68EB9EED1F0BC01F0FF0102F007028F
:1026300032B110F8013B013A83EA010313B1F8D13A
:102640000020704701387047002D06BF354603381B
:10265000073815F0010F07D1013015F4807F02BF54
:10266000013015F4C03F0130F0BC0138704700BFA5
:1026700010B5431E0A44914200D110BD11F8014B20
:1026800003F8014FF7E7884210B501EB020303D8C6
:10269000421E99420CD110BD9842F9D28118D21A2B
:1026A000D34200D110BD13F8014D01F8014DF7E7F9
:1026B00011F8014B02F8014FEBE770477047F8B58E
:1026C000074614460E4621B91146BDE8F840FFF70B
:1026D00027BC22B9FFF7D6FB25462846F8BD00F0F7
:1026E00014F884420FD921463846FFF719FC0546F5
:1026F0000028F2D031462246FFF7BAFF314638466D
:10270000FFF7C0FBE9E73546E7E751F8040C00287E
:10271000A0F10400BCBF0B58C01870472E2E2F73B9
:10272000797374656D2F7372632F73746D333266B2
:10273000332D7374647065726970682F73746D33B0
:1027400032663330785F6770696F2E630000000077
:102750002E2E2F73797374656D2F7372632F7374BC
:102760006D333266332D7374647065726970682FCF
:1027700073746D3332663330785F6D6973632E63C3
:10278000000000002E2E2F73797374656D2F737205
:10279000632F73746D333266332D73746470657296
:1027A0006970682F73746D3332663330785F72638B
:1027B000632E63002E2E2F73797374656D2F7372E1
:1027C000632F73746D333266332D73746470657266
:1027D0006970682F73746D3332663330785F73704D
:1027E000692E63002E2E2F73797374656D2F7372AB
:1027F000632F73746D333266332D73746470657236
:102800006970682F73746D3332663330785F757317
:102810006172742E6300000061626F727428292C4B
:102820002065786974696E672E2E2E00617373655A
:1028300072745F706172616D2829206661696C65D0
:10284000643A2066696C6520222573222C206C690D
:102850006E652025640A0000537461636B20667204
:10286000616D653A0A000000205230203D2020258D
:102870003038580A00000000205231203D20202529
:102880003038580A00000000205232203D20202518
:102890003038580A00000000205233203D20202507
:1028A0003038580A0000000020523132203D2025E7
:1028B0003038580A00000000204C52203D202025CE
:1028C0003038580A00000000205043203D202025C9
:1028D0003038580A0000000020505352203D202577
:1028E0003038580A000000004653522F4641523AF1
:1028F0000A0000002043465352203D202025303856
:10290000580A00002048465352203D2020253038E8
:10291000580A00002044465352203D2020253038DC
:10292000580A00002041465352203D2020253038CF
:10293000580A0000204D4D464152203D2025303898
:10294000580A00002042464152203D2020253038C0
:10295000580A00004D6973630A000000204C522F92
:102960004558435F52455455524E3D202530385806
:102970000A0000005B486172644661756C745D0A10
:10298000000000005B4275734661756C745D0A005F
:102990005B55736167654661756C745D0A00000084
:1029A0000A0D476F7420696E7075743A200000003C
:1029B0000A0D496E70757420746F6F206C6F6E67AE
:1029C0000A0D000077686F616D69000072756E0016
:1029D00068656C70000000000D0A417661696C61E9
:1029E000626C6520636F6D6D616E64733A0D0A00F1
:1029F0000D0A00000D0A436F6D6D616E64207275E3
:102A00006E0000000D0A436F6D6D616E6420776883
:102A10006F616D69202D2053544D3332463330336E
:102A2000564354360A0D00000A0D544F4B454E20B4
:102A30003D2000000A0D556E6B6E6F776E20636F40
:102A40006D6D616E6420000048656C6C6F20776F5F
:102A5000726C64210A0D0000232D302B2000686C5D
:102A60004C006566674546470030313233343536B1
:102A700037383941424344454600303132333435EA
:0B2A8000363738396162636465660018
:102A8C007856341200000100020004000600080011
:102A9C000A000C0010002000400080000001FFFF25
:102AAC0000000000010203040102030406070809E8
:102ABC00BC0000200000000000000000000000002E
:102ACC00010203040607080900A24A045000002072
:102ADC0000000000000000000000000000000000EA
:102AEC0000000000000000000000000000000000DA
:102AFC0000000000000000000000000000000000CA
:102B0C0000000000000000000000000000000000B9
:102B1C0000000000000000000000000000000000A9
:102B2C000000000000000000000000000000000099
:042B3C003254769801
:040000050800018965
:00000001FF
